:100000000C945D000C9485000C9485000C94850084
:100010000C9485000C9485000C9485000C9485004C
:100020000C9485000C9485000C9485000C9485003C
:100030000C9485000C9485000C9485000C9485002C
:100040000C9465030C9485000C94D5030C94AF03B9
:100050000C9485000C9485000C9485000C9485000C
:100060000C9407040C9485000000000800020100B5
:100070000003040700000000000000000000000072
:10008000250028002B0000000000240027002A0083
:10009000040404040404040402020202020203032E
:1000A0000303030301020408102040800102040836
:1000B0001020010204081020260511241FBECFEFD6
:1000C000D8E0DEBFCDBF11E0A0E0B1E0E4E6FCE0A7
:1000D00002C005900D92A432B107D9F722E0A4E244
:1000E000B1E001C01D92AA36B207E1F710E0CDE5FC
:1000F000D0E004C02197FE010E942A06CC35D1072A
:10010000C9F70E945F050C9430060C94000090E043
:10011000FC01EC55FF4F249180579F4FFC018491C7
:10012000882399F090E0880F991FFC01EA57FF4F50
:10013000A591B491FC01E458FF4F859194918FB73C
:10014000F894EC91E22BEC938FBF08950895CF9330
:10015000DF93AC01E091B601F091B7013097F1F077
:100160009091B5018091B4019817C0F090E0292FCB
:1001700030E02617370754F4D901AC5DBE4F240F89
:10018000351FE90128812C939F5FF1CF1092B501B3
:100190006093B401CB01DF91CF910994DF91CF91AE
:1001A0000895AF92BF92CF92DF92EF92FF920F939A
:1001B0001F93CF93DF936C017B018B01040F151FFD
:1001C000EB015E01AE18BF08C017D10759F0699165
:1001D000D601ED91FC910190F081E02DC6010995C9
:1001E000892B79F7C501DF91CF911F910F91FF9076
:1001F000EF90DF90CF90BF90AF900895FC01538DAA
:10020000448D252F30E0842F90E0821B930B5417F0
:1002100010F0CF96089501970895FC01918D828D7D
:10022000981761F0A28DAE0FBF2FB11D5D968C9116
:10023000928D9F5F9F73928F90E008958FEF9FEF55
:100240000895FC01918D828D981731F0828DE80F11
:10025000F11D858D90E008958FEF9FEF0895FC01CB
:10026000918D228D892F90E0805C9F4F821B910998
:100270008F739927089581EC91E00E942F0121E06E
:10028000892B09F420E0822F089580E090E0892BEB
:1002900029F00E943B0181110C9400000895FC019B
:1002A000A48DA80FB92FB11DA35ABF4F2C91848DD7
:1002B00090E001968F739927848FA689B7892C9334
:1002C000A089B1898C91837080648C93938D848D87
:1002D000981306C00288F389E02D80818F7D80838A
:1002E0000895EF92FF920F931F93CF93DF93EC014A
:1002F00081E0888F9B8D8C8D98131AC0E889F989CD
:10030000808185FF15C09FB7F894EE89FF896083CF
:10031000E889F98980818370806480839FBF81E050
:1003200090E0DF91CF911F910F91FF90EF90089592
:10033000F62E0B8D10E00F5F1F4F0F731127E02E6D
:100340008C8D8E110CC00FB607FCFACFE889F989A5
:10035000808185FFF5CFCE010E944F01F1CFEB8D5B
:10036000EC0FFD2FF11DE35AFF4FF0829FB7F89479
:100370000B8FEA89FB8980818062CFCFCF93DF9397
:10038000EC01888D8823B9F0AA89BB89E889F989AD
:100390008C9185FD03C0808186FD0DC00FB607FCE2
:1003A000F7CF8C9185FFF2CF808185FFEDCFCE0115
:1003B0000E944F01E9CFDF91CF91089590E0FC01B9
:1003C000E859FF4F2491FC01EC55FF4F3491FC019B
:1003D000E057FF4FE491EE23C9F0222339F0233098
:1003E00001F1A8F4213019F1223029F1F0E0EE0FEB
:1003F000FF1FE458FF4FA591B4918FB7F894EC918B
:10040000611126C030953E233C938FBF089527305D
:10041000A9F02830C9F0243049F7809180008F7D01
:1004200003C0809180008F7780938000DFCF84B5F8
:100430008F7784BDDBCF84B58F7DFBCF8091B000FB
:100440008F778093B000D2CF8091B0008F7DF9CFAD
:100450003E2BDACF1F93CF93DF93182FEB010E942F
:100460008700209739F460E0812FDF91CF911F91B1
:100470000C94DE01E12FF0E0E859FF4FE491E33006
:1004800039F148F4E130B9F0E230E9F0C038D10593
:1004900054F361E0E9CFE73029F1E83059F1E43075
:1004A000A9F780918000806280938000D0938B00B8
:1004B000C0938A0004C084B5806884BDC7BDDF9145
:1004C000CF911F91089584B5806284BDC8BDF7CFD8
:1004D00080918000806880938000D0938900C093D1
:1004E0008800EDCF8091B00080688093B000C09309
:1004F000B300E5CF8091B00080628093B000C093DC
:10050000B400DDCF85ED8093BC008091BC0084FDFC
:10051000FCCF1092B101089520916401260F33277A
:10052000331F21323105ECF42091B101FC0190E040
:1005300080E0243069F082E00895A0916401219167
:10054000AC014C5B5E4FA40FB52FB11D2C930196EF
:10055000861798F380916401680F6093640180E0CE
:10056000089581E008950895E091B5018091B40166
:10057000E81730F4F0E0EC5DFE4F808190E00895E4
:100580008FEF9FEF08959091B5018091B4012FEF07
:100590003FEF981748F4E92FF0E0EC5DFE4F208123
:1005A00030E09F5F9093B501C90108958091B40137
:1005B0009091B501891B990B0895CF93DF93CB01DF
:1005C000EA01642F0E948C02CE01DF91CF91089541
:1005D000CF93DF931F92CDB7DEB7698361E0CE0181
:1005E00001960E948C0281E090E00F90DF91CF9104
:1005F000089590E080E008959091B4018091B50154
:10060000981709F461C08EE592E00E94C30200973A
:1006100091F470E060E08BE00E942A0264E670E0F2
:100620008AE00E942A0264E670E089E00E942A02C1
:1006300070E060E024C08330910569F466E970E001
:100640008BE00E942A0270E060E08AE00E942A02A9
:1006500066E970E0EACF81309105A9F470E060E0CE
:100660008BE00E942A0266E970E08AE00E942A027A
:1006700070E060E089E00E942A0266E970E086E0AE
:100680000E942A02B9CF029791F464E670E08BE0F1
:100690000E942A0270E060E08AE00E942A0270E074
:1006A00060E089E00E942A0264E670E0E8CF70E032
:1006B00060E08BE00E942A0270E060E08AE00E9425
:1006C0002A0270E060E0B1CF08951F920F920FB63A
:1006D0000F9211242F933F938F939F93AF93BF93C8
:1006E0008091BD019091BE01A091BF01B091C00168
:1006F0003091BC0123E0230F2D3758F50196A11D41
:10070000B11D2093BC018093BD019093BE01A093C5
:10071000BF01B093C0018091B8019091B901A0913F
:10072000BA01B091BB010196A11DB11D8093B80122
:100730009093B901A093BA01B093BB01BF91AF915F
:100740009F918F913F912F910F900FBE0F901F900F
:10075000189526E8230F0296A11DB11DD2CF1F9236
:100760000F920FB60F9211242F933F934F935F93E5
:100770006F937F938F939F93AF93BF93EF93FF9369
:1007800081EC91E00E944F01FF91EF91BF91AF91F9
:100790009F918F917F916F915F914F913F912F9199
:1007A0000F900FBE0F901F9018951F920F920FB6CB
:1007B0000F9211242F938F939F93EF93FF93E091C8
:1007C000D101F091D2018081E091D701F091D8015F
:1007D00082FD1BC090818091DA018F5F8F73209121
:1007E000DB01821741F0E091DA01F0E0EF53FE4FB8
:1007F000958F8093DA01FF91EF919F918F912F91C7
:100800000F900FBE0F901F9018958081F4CF1F920C
:100810000F920FB60F9211242F933F934F935F9334
:100820006F937F938F939F93AF93BF93EF93FF93B8
:100830008091B900887F803609F44AC0F0F588328B
:1008400009F4A7C018F5803109F49BC0B8F48823D7
:1008500009F4F9C0883009F494C0FF91EF91BF9179
:10086000AF919F918F917F916F915F914F913F9148
:100870002F910F900FBE0F901F901895883109F49B
:1008800088C0803251F78093870114C0803409F406
:100890009DC040F48033B9F38833F9F68093870123
:1008A00085ECB0C0803509F485C0883509F496C060
:1008B000883499F60E948202D0CF883909F48CC01E
:1008C00038F5883729F050F4883611F0803729F64A
:1008D00083E08093B1011092860157C0883809F4F3
:1008E0007BC0803919F0803809F0B7CF809186013C
:1008F000803208F071C0E091860181E08E0F809314
:1009000086018091BB00F0E0EA59FE4F80833DC034
:10091000803B39F0E0F4803A09F479C0883A09F074
:100920009CCF84E08093B101109265011092640124
:10093000E091AD01F091AE010995809164018111C2
:100940000FC081E0809364011092440109C0803C93
:1009500009F4A6CF883C09F4A3CF883B09F07DCFEA
:10096000E091650181E08E0F80936501F0E0EC5B22
:10097000FE4F80818093BB0090916501809164015E
:1009800029C08091AA018093BB0085EC8093BC00B4
:1009900064CF9091A9018091A801981758F5E09132
:1009A000A90181E08E0F8093A901F0E0E857FE4F86
:1009B0008081E9CFE091A90181E08E0F8093A901A8
:1009C0008091BB00F0E0E857FE4F80839091A90131
:1009D0008091A8019817C8F285E8D8CFE091A901C5
:1009E00081E08E0F8093A9018091BB00F0E0E85771
:1009F000FE4F80838091B00181115CCF81E08093B4
:100A0000AF0184EA8093BC001092B10126CF85EC3F
:100A10008093BC001092B10180918601803230F445
:100A2000E0918601F0E0EA59FE4F10826091860164
:100A300070E0E091AB01F091AC0186E691E00995A0
:100A4000109286010ACF1092870134CFE1ECF1E0D9
:100A50001382128288EE93E0A0E0B0E08483958355
:100A6000A683B78324E031E03183208325EC30E096
:100A70003587248724EC30E03787268720EC30E068
:100A8000318B208B21EC30E0338B228B22EC30E059
:100A9000358B248B26EC30E0378B268B118E128E13
:100AA000138E148EEEE5F2E0138212828483958316
:100AB000A683B78386E191E091838083089578943B
:100AC00084B5826084BD84B5816084BD85B5826053
:100AD00085BD85B5816085BD80916E008160809304
:100AE0006E0010928100809181008260809381006D
:100AF000809181008160809381008091800081607D
:100B0000809380008091B10084608093B1008091D7
:100B1000B00081608093B00080917A0084608093FF
:100B20007A0080917A00826080937A0080917A00C6
:100B3000816080937A0080917A00806880937A0047
:100B40001092C1008BE00E9487008AE00E9487001B
:100B500089E00E94870086E00E9487001092B5011C
:100B60001092B4011092B3011092B2011092B1012F
:100B700081E08093B0011092AF0161E082E10E94B8
:100B8000DE0161E083E10E94DE018091B9008E7F89
:100B90008093B9008091B9008D7F8093B90088E47B
:100BA0008093B80085E48093BC0086EA90E090933F
:100BB000AE018093AD0187EA90E09093AC01809301
:100BC000AB0188E08093BA008CEF92E09093B7017C
:100BD0008093B601E091D101F091D20182E080834F
:100BE000E091CD01F091CE011082E091CF01F09122
:100BF000D0018FEC80831092D901E091D501F09162
:100C0000D60186E08083E091D301F091D401808108
:100C100080618083E091D301F091D401808188606C
:100C20008083E091D301F091D4018081806880833A
:100C3000E091D301F091D40180818F7D8083C0E069
:100C4000D0E02097F1F30E943B018823D1F30E946A
:100C50000000F7CFEE0FFF1F0590F491E02D0994EF
:040C6000F894FFCF36
:100C6400000000007101D100FE00BE012F010D0142
:100C7400210100000000E802DD02F902B302D602FD
:040C8400C302B402F1
:107800000C94343C0C94513C0C94513C0C94513CE1
:107810000C94513C0C94513C0C94513C0C94513CB4
:107820000C94513C0C94513C0C94513C0C94513CA4
:107830000C94513C0C94513C0C94513C0C94513C94
:107840000C94513C0C94513C0C94513C0C94513C84
:107850000C94513C0C94513C0C94513C0C94513C74
:107860000C94513C0C94513C11241FBECFEFD8E036
:10787000DEBFCDBF11E0A0E0B1E0ECE9FFE702C060
:1078800005900D92A230B107D9F712E0A2E0B1E065
:1078900001C01D92AD30B107E1F70E942D3D0C945F
:1078A000CC3F0C94003C982F959595959595959582
:1078B000905D8F708A307CF0282F295A8091C0000B
:1078C00085FFFCCF9093C6008091C00085FFFCCF60
:1078D0002093C6000895282F205DF0CF982F809127
:1078E000C00085FFFCCF9093C6000895EF92FF92F1
:1078F0000F931F93EE24FF2487018091C00087FD22
:1079000017C00894E11CF11C011D111D81E4E8164B
:1079100082E4F8068FE0080780E0180770F3E09132
:107920000401F091050109958091C00087FFE9CF1E
:107930008091C6001F910F91FF90EF9008950E94D3
:10794000763C982F8091C00085FFFCCF9093C600B5
:1079500091362CF490330CF09053892F089597555D
:10796000892F08951F930E949F3C182F0E949F3CCF
:107970001295107F810F1F9108951F93182F882350
:1079800021F00E94763C1150E1F71F9108951F935A
:10799000182F0E94763C803249F0809103018F5F5E
:1079A000809303018530C1F01F9108958091C0003C
:1079B00085FFFCCF84E18093C6008091C00085FFE5
:1079C000FCCF1093C6008091C00085FFFCCF80E102
:1079D0008093C6001F910895E0910401F091050184
:1079E00009951F9108950E94763C803241F0809164
:1079F00003018F5F80930301853081F008958091AA
:107A0000C00085FFFCCF84E18093C6008091C00058
:107A100085FFFCCF80E18093C6000895E0910401CA
:107A2000F09105010995089540E951E08823A1F0FE
:107A30002D9A28EE33E0FA013197F1F721503040CA
:107A4000D1F72D9828EE33E0FA013197F1F7215064
:107A50003040D1F7815061F708953F924F925F9285
:107A60006F927F928F929F92AF92BF92CF92DF924E
:107A7000EF92FF920F931F93CF93DF93000080E16B
:107A80008093C4001092C50088E18093C10086E015
:107A90008093C2005098589A259A81E00E94143D24
:107AA00024E1F22E9EE1E92E85E9D82E0FE0C02ECA
:107AB00010E1B12EAA24A394B1E49B2EA6E58A2E50
:107AC000F2E57F2EE0E26E2E79E4572E63E5462E36
:107AD00050E5352E0E94763C8033B1F18133B9F107
:107AE000803409F46FC0813409F476C0823409F41B
:107AF00085C0853409F488C0803531F1823521F1A3
:107B0000813511F1853509F485C0863509F48DC0BC
:107B1000843609F496C0843709F403C1853709F423
:107B200072C1863709F466C0809103018F5F80932C
:107B30000301853079F6E0910401F0910501099582
:107B40000E94763C803351F60E94F33CC3CF0E94E2
:107B5000763C803249F78091C00085FFFCCFF092DF
:107B6000C6008091C00085FFFCCF9092C600809136
:107B7000C00085FFFCCF8092C6008091C00085FFC9
:107B8000FCCF7092C6008091C00085FFFCCF609250
:107B9000C6008091C00085FFFCCF5092C600809146
:107BA000C00085FFFCCF4092C6008091C00085FFD9
:107BB000FCCF3092C6008091C00085FFFCCFB09210
:107BC000C60088CF0E94763C863808F4BDCF0E945C
:107BD000763C0E94F33C7ECF0E94763C803809F4CC
:107BE0009CC0813809F40BC1823809F43CC1883942
:107BF00009F48FC080E00E94C73C6CCF84E10E94F2
:107C0000BD3C0E94F33C66CF85E00E94BD3C0E94D3
:107C1000F33C60CF0E94763C809306010E94763C44
:107C2000809307010E94F33C55CF0E94763C80333D
:107C300009F41DC183E00E94BD3C80E00E94C73C66
:107C400049CF0E94763C809309020E94763C809343
:107C5000080280910C028E7F80930C020E94763C79
:107C6000853409F415C18091080290910902892B8D
:107C700089F000E010E00E94763CF801E85FFE4FDA
:107C800080830F5F1F4F80910802909109020817AF
:107C9000190788F30E94763C803209F045CF809125
:107CA0000C0280FF01C16091060170910701660F0F
:107CB000771F7093070160930601A0910802B091AD
:107CC00009021097C9F0E8E0F1E09B01AD014E0F09
:107CD0005F1FF999FECF32BD21BD819180BDFA9A17
:107CE000F99A2F5F3F4FE417F50799F76A0F7B1F4B
:107CF00070930701609306018091C00085FFFCCF5F
:107D0000F092C6008091C00085FFFCCFB092C60003
:107D1000E1CE83E00E94C73CDDCE82E00E94C73CFA
:107D2000D9CE0E94763C809309020E94763C8093D3
:107D300008028091060190910701880F991F909386
:107D40000701809306010E94763C853409F4A6C0A1
:107D500080910C028E7F80930C020E94763C8032D0
:107D600009F0B8CE8091C00085FFFCCFF092C6002C
:107D7000609108027091090261157105B9F140E046
:107D800050E080910C02A82FA170B82FB27011C0E2
:107D9000BB2309F45CC0E0910601F0910701319624
:107DA000F0930701E09306014F5F5F4F46175707B7
:107DB000E8F4AA2369F3F999FECF209106013091E6
:107DC000070132BD21BDF89A90B58091C00085FFB2
:107DD000FCCF9093C6002F5F3F4F30930701209355
:107DE00006014F5F5F4F4617570718F38091C00099
:107DF00085FDE5CE8091C00085FFF8CFE0CE81E023
:107E00000E94C73C67CE0E94763C803209F08CCE3F
:107E10008091C00085FFFCCFF092C6008091C00029
:107E200085FFFCCFE092C6008091C00085FFFCCFAB
:107E3000D092C6008091C00085FFFCCFC092C600E2
:107E40008091C00085FFFCCFB092C60043CEE09188
:107E50000601F091070194918091C00085FFFCCF4D
:107E60009093C6009CCF80E10E94C73C33CE0E9415
:107E7000763C0E94763C182F0E94763C112309F430
:107E800083C0113009F484C08FE00E94C73C22CE29
:107E900080910C02816080930C02E5CE80910C02EF
:107EA000816080930C0259CF809107018823880F4D
:107EB000880B8A2180930B02809106019091070123
:107EC000880F991F90930701809306018091080203
:107ED00080FF09C080910802909109020196909359
:107EE000090280930802F894F999FECF1127E091D6
:107EF0000601F0910701C8E0D1E08091080290915D
:107F00000902103091F40091570001700130D9F34B
:107F100003E000935700E89500915700017001308D
:107F2000D9F301E100935700E89509901990009169
:107F3000570001700130D9F301E000935700E89534
:107F40001395103498F011270091570001700130FB
:107F5000D9F305E000935700E895009157000170B0
:107F60000130D9F301E100935700E895329602976A
:107F700009F0C7CF103011F00296E5CF112480919F
:107F8000C00085FFB9CEBCCE8EE10E94C73CA2CD19
:0C7F900085E90E94C73C9ECDF894FFCF0D
:027F9C00800063
:040000030000780081
:00000001FF
